:100000000C942A000C9447000C9447000C94470071
:100010000C9447000C9447000C9447000C94470044
:100020000C9447000C9447000C9447000C94470034
:100030000C9484000C9447000C9447000C944700E7
:100040000C9447000C9447000C9447000C94470014
:100050000C94470011241FBECFE5D8E0DEBFCDBF12
:1000600010E0A0E6B0E0E4E2F7E002C005900D92F7
:10007000A23BB107D9F720E0A2EBB0E001C01D928E
:10008000A53BB207E1F70E9449000C9490030C9441
:10009000000060E875E280E090E00E945F017894E3
:1000A0000E9416018091B400813451F40E94A40191
:1000B00080E690E00E94910189E58093B400F2CF40
:1000C000823451F40E94B00184E790E00E949101D3
:1000D00089E58093B400E6CF833451F40E94BB01DC
:1000E00089E890E00E94910189E58093B400DACF1D
:1000F0008434C1F60E94C7018DE990E00E9491010D
:1001000089E58093B400CECF1F920F920FB60F9265
:1001100011242F933F934F935F936F937F938F930C
:100120009F93AF93BF93EF93FF938FB18093B400EE
:100130000E948D011FB8FF91EF91BF91AF919F91E8
:100140008F917F916F915F914F913F912F910F9080
:100150000FBE0F901F901895CF93C82F8AE590E09F
:100160000E942701C130B1F48AB380668ABB8BB389
:1001700080648BBB8BB38F7D8BBB2FE784E89EE1C4
:10018000215080409040E1F700C000008BB38F7B8E
:100190008BBB15C08AB380668ABB8BB38F7B8BBB4E
:1001A0008BB380628BBB2FE784E89EE121508040B7
:1001B0009040E1F700C000008BB38F7D8BBBCF91E7
:1001C0000895CF93C82F84E690E00E944301C13088
:1001D000B1F48AB38C608ABB8BB384608BBB8BB366
:1001E000877F8BBB2FE784E89EE1215080409040C1
:1001F000E1F700C000008BB38B7F8BBB15C08AB3C7
:100200008C608ABB8BB38B7F8BBB8BB388608BBBC3
:100210002FE784E89EE1215080409040E1F700C044
:1002200000008BB3877F8BBBCF91089587B38F740A
:1002300087BB87B3806487BB8DB180648DB988B379
:10024000806188BB78948DB180688DB90895BC01B8
:100250008DE683BF87B3886087BB072E000C880BB1
:10026000990B0E94750220E030E048EC52E40E94B5
:10027000D20120E030E04FE753E40E9401030E94E6
:1002800044026CBF0895BC0189E685BD81B38068D6
:1002900081BB072E000C880B990B0E94750220E091
:1002A00030E048EC52E40E94D20120E030E04FE719
:1002B00053E40E9401030E94440263BD08952AB1E1
:1002C00028612AB920B5266820BDDC01CB01880F42
:1002D000991FAA1FBB1F880F991FAA1FBB1F9C0134
:1002E000AD01220F331F441F551F220F331F441F20
:1002F000551F60E074E284EF90E00E946E038FEF80
:10030000820F89B9DA01C9010197A109B109892FC1
:100310009A2FAB2FBB2780BD08955D9BFECF8CB974
:1003200008950F931F93CF938C01C0E003C00E94E8
:100330008D01CF5FF801EC0FF11D80818111F7CFA6
:10034000CF911F910F9108958091B300811107C043
:1003500081E090E00E94AC0081E08093B3000895BA
:100360008091B300882331F080E090E00E94AC00DF
:100370001092B30008958091B200811107C081E00E
:1003800090E00E94E10081E08093B20008958091A6
:10039000B200882331F080E090E00E94E1001092EA
:1003A000B20008950E94E6010C94C7020E94C002A8
:1003B00058F00E94B90240F029F45F3F29F00C94F4
:1003C000B00251110C94FB020C94B6020E94D802A8
:1003D00068F39923B1F3552391F3951B550BBB2774
:1003E000AA2762177307840738F09F5F5F4F220FB9
:1003F000331F441FAA1FA9F335D00E2E3AF0E0E8B0
:1004000032D091505040E695001CCAF72BD0FE2FF9
:1004100029D0660F771F881FBB1F2617370748078D
:10042000AB07B0E809F0BB0B802DBF01FF27935845
:100430005F4F3AF09E3F510578F00C94B0020C9457
:10044000FB025F3FE4F3983ED4F38695779567957A
:10045000B795F7959F5FC9F7880F911D969587957A
:1004600097F90895E1E0660F771F881FBB1F621799
:1004700073078407BA0720F0621B730B840BBA0B57
:10048000EE1F88F7E09508950E94E00288F09F57DC
:1004900098F0B92F9927B751B0F0E1F0660F771FA8
:1004A000881F991F1AF0BA95C9F714C0B13091F09E
:1004B0000E94FA02B1E008950C94FA02672F782F97
:1004C0008827B85F39F0B93FCCF386957795679563
:1004D000B395D9F73EF490958095709561957F4FCF
:1004E0008F4F9F4F0895E89409C097FB3EF4909575
:1004F0008095709561957F4F8F4F9F4F9923A9F0FD
:10050000F92F96E9BB279395F6958795779567958B
:10051000B795F111F8CFFAF4BB0F11F460FF1BC0CF
:100520006F5F7F4F8F4F9F4F16C0882311F096E962
:1005300011C0772321F09EE8872F762F05C0662310
:1005400071F096E8862F70E060E02AF09A95660FC9
:10055000771F881FDAF7880F9695879597F9089582
:1005600097F99F6780E870E060E008959FEF80EC66
:10057000089500240A941616170618060906089509
:1005800000240A9412161306140605060895092E6F
:100590000394000C11F4882352F0BB0F40F4BF2BDE
:1005A00011F460FF04C06F5F7F4F8F4F9F4F08951E
:1005B00057FD9058440F551F59F05F3F71F0479514
:1005C000880F97FB991F61F09F3F79F087950895F9
:1005D000121613061406551FF2CF4695F1DF08C018
:1005E000161617061806991FF1CF86957105610535
:1005F00008940895E894BB2766277727CB0197F9DD
:1006000008950E9414030C94C7020E94B90238F0A6
:100610000E94C00220F0952311F00C94B0020C94BB
:10062000B60211240C94FB020E94D80270F3959F2D
:10063000C1F3950F50E0551F629FF001729FBB27D9
:10064000F00DB11D639FAA27F00DB11DAA1F649F75
:100650006627B00DA11D661F829F2227B00DA11D28
:10066000621F739FB00DA11D621F839FA00D611DAE
:10067000221F749F3327A00D611D231F849F600DCF
:10068000211D822F762F6A2F11249F5750409AF0F8
:10069000F1F088234AF0EE0FFF1FBB1F661F771F84
:1006A000881F91505040A9F79E3F510580F00C944F
:1006B000B0020C94FB025F3FE4F3983ED4F38695BE
:1006C00077956795B795F795E7959F5FC1F7FE2BEF
:1006D000880F911D9695879597F90895A1E21A2E96
:1006E000AA1BBB1BFD010DC0AA1FBB1FEE1FFF1FD6
:1006F000A217B307E407F50720F0A21BB30BE40B26
:10070000F50B661F771F881F991F1A9469F760956C
:100710007095809590959B01AC01BD01CF01089526
:04072000F894FFCF7B
:100724004F70656E20446F6F722031207375636360
:1007340065737300436C6F736520446F6F7220316F
:100744002073756363657373004F70656E20446F27
:100754006F722032207375636365737300436C6F2B
:10076400736520446F6F7220322073756363657301
:02077400730010
:00000001FF
